{
  "_format": "hh-sol-artifact-1",
  "contractName": "Staking",
  "sourceName": "contracts/Staking.sol",
  "abi": [
    {
      "inputs": [],
      "stateMutability": "payable",
      "type": "constructor"
    },
    {
      "inputs": [
        {
          "internalType": "uint256",
          "name": "positionId",
          "type": "uint256"
        },
        {
          "internalType": "uint256",
          "name": "newUnlockTime",
          "type": "uint256"
        }
      ],
      "name": "changeUnlockTime",
      "outputs": [],
      "stateMutability": "nonpayable",
      "type": "function"
    },
    {
      "inputs": [
        {
          "internalType": "uint256",
          "name": "positionId",
          "type": "uint256"
        }
      ],
      "name": "closePosition",
      "outputs": [],
      "stateMutability": "nonpayable",
      "type": "function"
    },
    {
      "inputs": [],
      "name": "currentPositionId",
      "outputs": [
        {
          "internalType": "uint256",
          "name": "",
          "type": "uint256"
        }
      ],
      "stateMutability": "view",
      "type": "function"
    },
    {
      "inputs": [
        {
          "internalType": "uint256",
          "name": "numHours",
          "type": "uint256"
        }
      ],
      "name": "getInterestRate",
      "outputs": [
        {
          "internalType": "uint256",
          "name": "",
          "type": "uint256"
        }
      ],
      "stateMutability": "view",
      "type": "function"
    },
    {
      "inputs": [],
      "name": "getLockPeriods",
      "outputs": [
        {
          "internalType": "uint256[]",
          "name": "",
          "type": "uint256[]"
        }
      ],
      "stateMutability": "view",
      "type": "function"
    },
    {
      "inputs": [
        {
          "internalType": "uint256",
          "name": "positionId",
          "type": "uint256"
        }
      ],
      "name": "getPositionById",
      "outputs": [
        {
          "components": [
            {
              "internalType": "uint256",
              "name": "positionId",
              "type": "uint256"
            },
            {
              "internalType": "address",
              "name": "walletAddress",
              "type": "address"
            },
            {
              "internalType": "uint256",
              "name": "createTime",
              "type": "uint256"
            },
            {
              "internalType": "uint256",
              "name": "unlockTime",
              "type": "uint256"
            },
            {
              "internalType": "uint256",
              "name": "percentInterest",
              "type": "uint256"
            },
            {
              "internalType": "uint256",
              "name": "tokenStaked",
              "type": "uint256"
            },
            {
              "internalType": "uint256",
              "name": "tokenInterest",
              "type": "uint256"
            },
            {
              "internalType": "bool",
              "name": "open",
              "type": "bool"
            }
          ],
          "internalType": "struct Staking.Position",
          "name": "",
          "type": "tuple"
        }
      ],
      "stateMutability": "view",
      "type": "function"
    },
    {
      "inputs": [
        {
          "internalType": "address",
          "name": "walletAddress",
          "type": "address"
        }
      ],
      "name": "getPositionIdsForAddress",
      "outputs": [
        {
          "internalType": "uint256[]",
          "name": "",
          "type": "uint256[]"
        }
      ],
      "stateMutability": "view",
      "type": "function"
    },
    {
      "inputs": [
        {
          "internalType": "uint256",
          "name": "",
          "type": "uint256"
        }
      ],
      "name": "lockPeriods",
      "outputs": [
        {
          "internalType": "uint256",
          "name": "",
          "type": "uint256"
        }
      ],
      "stateMutability": "view",
      "type": "function"
    },
    {
      "inputs": [
        {
          "internalType": "uint256",
          "name": "numHours",
          "type": "uint256"
        },
        {
          "internalType": "uint256",
          "name": "basisPoints",
          "type": "uint256"
        }
      ],
      "name": "modifyLockPeriods",
      "outputs": [],
      "stateMutability": "nonpayable",
      "type": "function"
    },
    {
      "inputs": [],
      "name": "owner",
      "outputs": [
        {
          "internalType": "address",
          "name": "",
          "type": "address"
        }
      ],
      "stateMutability": "view",
      "type": "function"
    },
    {
      "inputs": [
        {
          "internalType": "address",
          "name": "",
          "type": "address"
        },
        {
          "internalType": "uint256",
          "name": "",
          "type": "uint256"
        }
      ],
      "name": "positionIdByAddress",
      "outputs": [
        {
          "internalType": "uint256",
          "name": "",
          "type": "uint256"
        }
      ],
      "stateMutability": "view",
      "type": "function"
    },
    {
      "inputs": [
        {
          "internalType": "uint256",
          "name": "",
          "type": "uint256"
        }
      ],
      "name": "positions",
      "outputs": [
        {
          "internalType": "uint256",
          "name": "positionId",
          "type": "uint256"
        },
        {
          "internalType": "address",
          "name": "walletAddress",
          "type": "address"
        },
        {
          "internalType": "uint256",
          "name": "createTime",
          "type": "uint256"
        },
        {
          "internalType": "uint256",
          "name": "unlockTime",
          "type": "uint256"
        },
        {
          "internalType": "uint256",
          "name": "percentInterest",
          "type": "uint256"
        },
        {
          "internalType": "uint256",
          "name": "tokenStaked",
          "type": "uint256"
        },
        {
          "internalType": "uint256",
          "name": "tokenInterest",
          "type": "uint256"
        },
        {
          "internalType": "bool",
          "name": "open",
          "type": "bool"
        }
      ],
      "stateMutability": "view",
      "type": "function"
    },
    {
      "inputs": [
        {
          "internalType": "uint256",
          "name": "numHours",
          "type": "uint256"
        }
      ],
      "name": "stakeTokens",
      "outputs": [],
      "stateMutability": "payable",
      "type": "function"
    },
    {
      "inputs": [
        {
          "internalType": "uint256",
          "name": "",
          "type": "uint256"
        }
      ],
      "name": "tiers",
      "outputs": [
        {
          "internalType": "uint256",
          "name": "",
          "type": "uint256"
        }
      ],
      "stateMutability": "view",
      "type": "function"
    }
  ],
  "bytecode": "0x6080604052336000806101000a81548173ffffffffffffffffffffffffffffffffffffffff021916908373ffffffffffffffffffffffffffffffffffffffff16021790555060006009819055506102bc600c600060018152602001908152602001600020819055506103e8600c600060068152602001908152602001600020819055506104b0600c6000600c815260200190815260200160002081905550600d60019080600181540180825580915050600190039060005260206000200160009091909190915055600d60069080600181540180825580915050600190039060005260206000200160009091909190915055600d600c908060018154018082558091505060019003906000526020600020016000909190919091505561158d8061012a6000396000f3fe6080604052600436106100dd5760003560e01c80637547c7a31161007f578063a126d60111610059578063a126d601146102f4578063aad710401461031d578063b0f0475b14610346578063b838ec861461036f576100dd565b80637547c7a3146102695780638da5cb5b1461028557806399fbab88146102b0576100dd565b80634088f204116100bb5780634088f2041461018757806340d98a44146101c457806341ee13be146102015780634c8f2a781461022c576100dd565b8063039af9eb146100e25780630c196a741461011f5780631131c8cd1461015c575b600080fd5b3480156100ee57600080fd5b5061010960048036038101906101049190610d4f565b6103ac565b6040516101169190610d8b565b60405180910390f35b34801561012b57600080fd5b5061014660048036038101906101419190610d4f565b6103c4565b6040516101539190610d8b565b60405180910390f35b34801561016857600080fd5b506101716103e1565b60405161017e9190610d8b565b60405180910390f35b34801561019357600080fd5b506101ae60048036038101906101a99190610e04565b6103e7565b6040516101bb9190610d8b565b60405180910390f35b3480156101d057600080fd5b506101eb60048036038101906101e69190610e44565b610418565b6040516101f89190610f2f565b60405180910390f35b34801561020d57600080fd5b506102166104af565b6040516102239190610f2f565b60405180910390f35b34801561023857600080fd5b50610253600480360381019061024e9190610d4f565b610507565b6040516102609190610d8b565b60405180910390f35b610283600480360381019061027e9190610d4f565b61052b565b005b34801561029157600080fd5b5061029a61075b565b6040516102a79190610f60565b60405180910390f35b3480156102bc57600080fd5b506102d760048036038101906102d29190610d4f565b61077f565b6040516102eb989796959493929190610f96565b60405180910390f35b34801561030057600080fd5b5061031b60048036038101906103169190610d4f565b6107f4565b005b34801561032957600080fd5b50610344600480360381019061033f9190611014565b610a39565b005b34801561035257600080fd5b5061036d60048036038101906103689190611014565b610ae6565b005b34801561037b57600080fd5b5061039660048036038101906103919190610d4f565b610bb9565b6040516103a39190611114565b60405180910390f35b600c6020528060005260406000206000915090505481565b6000600c6000838152602001908152602001600020549050919050565b60095481565b600b602052816000526040600020818154811061040357600080fd5b90600052602060002001600091509150505481565b6060600b60008373ffffffffffffffffffffffffffffffffffffffff1673ffffffffffffffffffffffffffffffffffffffff1681526020019081526020016000208054806020026020016040519081016040528092919081815260200182805480156104a357602002820191906000526020600020905b81548152602001906001019080831161048f575b50505050509050919050565b6060600d8054806020026020016040519081016040528092919081815260200182805480156104fd57602002820191906000526020600020905b8154815260200190600101908083116104e9575b5050505050905090565b600d818154811061051757600080fd5b906000526020600020016000915090505481565b6000600c60008381526020019081526020016000205411610581576040517f08c379a00000000000000000000000000000000000000000000000000000000081526004016105789061118d565b60405180910390fd5b60405180610100016040528060095481526020013373ffffffffffffffffffffffffffffffffffffffff168152602001428152602001610e10836105c591906111dc565b426105d09190611236565b8152602001600c6000848152602001908152602001600020548152602001348152602001610611600c60008581526020019081526020016000205434610c94565b815260200160011515815250600a600060095481526020019081526020016000206000820151816000015560208201518160010160006101000a81548173ffffffffffffffffffffffffffffffffffffffff021916908373ffffffffffffffffffffffffffffffffffffffff16021790555060408201518160020155606082015181600301556080820151816004015560a0820151816005015560c0820151816006015560e08201518160070160006101000a81548160ff021916908315150217905550905050600b60003373ffffffffffffffffffffffffffffffffffffffff1673ffffffffffffffffffffffffffffffffffffffff1681526020019081526020016000206009549080600181540180825580915050600190039060005260206000200160009091909190915055600960008154809291906107539061128c565b919050555050565b60008054906101000a900473ffffffffffffffffffffffffffffffffffffffff1681565b600a6020528060005260406000206000915090508060000154908060010160009054906101000a900473ffffffffffffffffffffffffffffffffffffffff16908060020154908060030154908060040154908060050154908060060154908060070160009054906101000a900460ff16905088565b3373ffffffffffffffffffffffffffffffffffffffff16600a600083815260200190815260200160002060010160009054906101000a900473ffffffffffffffffffffffffffffffffffffffff1673ffffffffffffffffffffffffffffffffffffffff1614610898576040517f08c379a000000000000000000000000000000000000000000000000000000000815260040161088f90611347565b60405180910390fd5b60011515600a600083815260200190815260200160002060070160009054906101000a900460ff16151514610902576040517f08c379a00000000000000000000000000000000000000000000000000000000081526004016108f9906113b3565b60405180910390fd5b6000600a600083815260200190815260200160002060070160006101000a81548160ff021916908315150217905550600a6000828152602001908152602001600020600301544211156109d8576000600a600083815260200190815260200160002060060154600a6000848152602001908152602001600020600501546109899190611236565b90503373ffffffffffffffffffffffffffffffffffffffff166108fc829081150290604051600060405180830381858888f193505050501580156109d1573d6000803e3d6000fd5b5050610a36565b3373ffffffffffffffffffffffffffffffffffffffff166108fc600a6000848152602001908152602001600020600501549081150290604051600060405180830381858888f19350505050158015610a34573d6000803e3d6000fd5b505b50565b3373ffffffffffffffffffffffffffffffffffffffff1660008054906101000a900473ffffffffffffffffffffffffffffffffffffffff1673ffffffffffffffffffffffffffffffffffffffff1614610ac7576040517f08c379a0000000000000000000000000000000000000000000000000000000008152600401610abe90611445565b60405180910390fd5b80600a6000848152602001908152602001600020600301819055505050565b3373ffffffffffffffffffffffffffffffffffffffff1660008054906101000a900473ffffffffffffffffffffffffffffffffffffffff1673ffffffffffffffffffffffffffffffffffffffff1614610b74576040517f08c379a0000000000000000000000000000000000000000000000000000000008152600401610b6b906114d7565b60405180910390fd5b80600c600084815260200190815260200160002081905550600d8290806001815401808255809150506001900390600052602060002001600090919091909150555050565b610bc1610cb7565b600a600083815260200190815260200160002060405180610100016040529081600082015481526020016001820160009054906101000a900473ffffffffffffffffffffffffffffffffffffffff1673ffffffffffffffffffffffffffffffffffffffff1673ffffffffffffffffffffffffffffffffffffffff16815260200160028201548152602001600382015481526020016004820154815260200160058201548152602001600682015481526020016007820160009054906101000a900460ff1615151515815250509050919050565b600061271082610ca49190611526565b83610caf91906111dc565b905092915050565b60405180610100016040528060008152602001600073ffffffffffffffffffffffffffffffffffffffff16815260200160008152602001600081526020016000815260200160008152602001600081526020016000151581525090565b600080fd5b6000819050919050565b610d2c81610d19565b8114610d3757600080fd5b50565b600081359050610d4981610d23565b92915050565b600060208284031215610d6557610d64610d14565b5b6000610d7384828501610d3a565b91505092915050565b610d8581610d19565b82525050565b6000602082019050610da06000830184610d7c565b92915050565b600073ffffffffffffffffffffffffffffffffffffffff82169050919050565b6000610dd182610da6565b9050919050565b610de181610dc6565b8114610dec57600080fd5b50565b600081359050610dfe81610dd8565b92915050565b60008060408385031215610e1b57610e1a610d14565b5b6000610e2985828601610def565b9250506020610e3a85828601610d3a565b9150509250929050565b600060208284031215610e5a57610e59610d14565b5b6000610e6884828501610def565b91505092915050565b600081519050919050565b600082825260208201905092915050565b6000819050602082019050919050565b610ea681610d19565b82525050565b6000610eb88383610e9d565b60208301905092915050565b6000602082019050919050565b6000610edc82610e71565b610ee68185610e7c565b9350610ef183610e8d565b8060005b83811015610f22578151610f098882610eac565b9750610f1483610ec4565b925050600181019050610ef5565b5085935050505092915050565b60006020820190508181036000830152610f498184610ed1565b905092915050565b610f5a81610dc6565b82525050565b6000602082019050610f756000830184610f51565b92915050565b60008115159050919050565b610f9081610f7b565b82525050565b600061010082019050610fac600083018b610d7c565b610fb9602083018a610f51565b610fc66040830189610d7c565b610fd36060830188610d7c565b610fe06080830187610d7c565b610fed60a0830186610d7c565b610ffa60c0830185610d7c565b61100760e0830184610f87565b9998505050505050505050565b6000806040838503121561102b5761102a610d14565b5b600061103985828601610d3a565b925050602061104a85828601610d3a565b9150509250929050565b61105d81610dc6565b82525050565b61106c81610f7b565b82525050565b610100820160008201516110896000850182610e9d565b50602082015161109c6020850182611054565b5060408201516110af6040850182610e9d565b5060608201516110c26060850182610e9d565b5060808201516110d56080850182610e9d565b5060a08201516110e860a0850182610e9d565b5060c08201516110fb60c0850182610e9d565b5060e082015161110e60e0850182611063565b50505050565b60006101008201905061112a6000830184611072565b92915050565b600082825260208201905092915050565b7f4d617070696e67206e6f7420666f756e64000000000000000000000000000000600082015250565b6000611177601183611130565b915061118282611141565b602082019050919050565b600060208201905081810360008301526111a68161116a565b9050919050565b7f4e487b7100000000000000000000000000000000000000000000000000000000600052601160045260246000fd5b60006111e782610d19565b91506111f283610d19565b9250817fffffffffffffffffffffffffffffffffffffffffffffffffffffffffffffffff048311821515161561122b5761122a6111ad565b5b828202905092915050565b600061124182610d19565b915061124c83610d19565b9250827fffffffffffffffffffffffffffffffffffffffffffffffffffffffffffffffff03821115611281576112806111ad565b5b828201905092915050565b600061129782610d19565b91507fffffffffffffffffffffffffffffffffffffffffffffffffffffffffffffffff8214156112ca576112c96111ad565b5b600182019050919050565b7f4f6e6c7920706f736974696f6e2063726561746f72206d617920636c6f73652060008201527f74686520706f736974696f6e0000000000000000000000000000000000000000602082015250565b6000611331602c83611130565b915061133c826112d5565b604082019050919050565b6000602082019050818103600083015261136081611324565b9050919050565b7f506f736974696f6e20697320636c6f7365640000000000000000000000000000600082015250565b600061139d601283611130565b91506113a882611367565b602082019050919050565b600060208201905081810360008301526113cc81611390565b9050919050565b7f4f6e6c79206f776e65722063616e206d6f646966792074686520756e6c6f636b60008201527f2074696d65000000000000000000000000000000000000000000000000000000602082015250565b600061142f602583611130565b915061143a826113d3565b604082019050919050565b6000602082019050818103600083015261145e81611422565b9050919050565b7f4f6e6c79206f776e6572206861766520616e2061636365737320746f206d6f6460008201527f696679207374616b696e6720706572696f640000000000000000000000000000602082015250565b60006114c1603283611130565b91506114cc82611465565b604082019050919050565b600060208201905081810360008301526114f0816114b4565b9050919050565b7f4e487b7100000000000000000000000000000000000000000000000000000000600052601260045260246000fd5b600061153182610d19565b915061153c83610d19565b92508261154c5761154b6114f7565b5b82820490509291505056fea26469706673582212209a1b716525f12d70ceb41934b6350011df455a229fb030efe9ba89f126351fb264736f6c63430008090033",
  "linkReferences": {},
  "deployedLinkReferences": {}
}